:1000000009C016C015C015C013C012C011C010C061
:100010000FC00EC011241FBECFE9CDBF20E0A0E667
:10002000B0E001C01D92AA36B207E1F777D0B6C0A2
:10003000E7CF1F920F920FB60F9211242F934F9379
:100040005F936F937F938F939F93809169008F5FEE
:1000500080936900853008F444C010926900409193
:10006000650050916600609167007091680091E0B2
:10007000B49990E081E041382AE1520726E0620716
:10008000710508F080E0892361F04C5E5F4F6F4F8F
:100090007F4F4093650050936600609367007093B4
:1000A0006800409165005091660060916700709112
:1000B000680091E0B39990E081E04230510561051C
:1000C000710508F480E0892361F044515109610908
:1000D00071094093650050936600609367007093C8
:1000E00068009F918F917F916F915F914F912F91B8
:1000F0000F900FBE0F901F90189580916000813077
:1001000031F488B38E7F88BB10926000089581E03F
:100110008093600088B3816088BB089584E083BFCA
:1001200082E089BF81E087BB88E188BB7894E5DF06
:1001300088EC90E0A0E0B0E08093650090936600CA
:10014000A0936700B0936800809161009091620075
:10015000A0916300B09164000196A11DB11D809330
:10016000610090936200A0936300B093640040919B
:1001700065005091660060916700709168004817B3
:1001800059076A077B0700F710926100109262001E
:100190001092630010926400B0DFD6CFF894FFCFC6
:00000001FF
